:040000006F20804F9E
:10000400000000000000000090000020D60700203F
:10001400A9BDF9F58C0800200000000000000000D4
:100024008C08002090000020000000000000000068
:10003400900000200000000090000020000000005C
:10004400900000200809002090000020900000206B
:1000540090000020580D002024090020000000001A
:1000640090000020900000209000002090000020CC
:10007400F208002090000020900000209000002052
:1000840090000020900000209000002090000020AC
:1000940001A04111B7170040985F3AC6945F3247F8
:1000A400E39CE6FE324541018280411181460146CE
:1000B4008145114506C6EF007013B727004011476C
:1000C4002383E780B7F700E003A707D16D9B23A83C
:1000D400E7D003A707D15D9B23A8E7D07300501096
:1000E40001000100B24041018280011181460146B4
:1000F4008145114506CEEF00700FB7270040114728
:100104002383E780B717004083C6E70203C5E704EB
:100114001307800893F6C60F1365350093E616009F
:10012400733607801376860832C00F1000009305DB
:1001340070052380B704130680FA2380C7040F10C8
:1001440000002382070223800704024873280880E2
:100154000F100000733807801378880842C20F100C
:1001640000002380B7042380C7040F1000002387F6
:10017400D7022387A704238007049246F3A60680A8
:100184000F100000F336078093F6860836C40F106C
:1001940000002380B7042380C7040F10000083C627
:1001A400B70493E60602A385D70423800704A24676
:1001B400F3A606800F100000B7F600E003A506D1F1
:1001C4001365450023A8A6D003A506D15D9923A8ED
:1001D400A6D0730050100100010073370780137715
:1001E40087083AC60F1000002380B7042380C70491
:1001F4000F10000003C7B7041377F70DA385E704B6
:1002040023800704B247F3A707800F100000F240D1
:10021400056182803971B7F5070022DC81462A84A2
:100224003010E105194506DE02D423160102EF0061
:10023400E07BB717004083C6E7041307800893E602
:100244003600733607801376860832C40F10000018
:10025400930570052380B704130680FA2380C7042E
:100264000F10000023820702238007042245732510
:1002740005800F10000073350780137585082AC6A2
:100284000F1000002380B7042380C7040F10000060
:100294002387D70423800704B246F3A606800F10F1
:1002A4000000F336078093F6860836C80F10000066
:1002B4002380B7042380C7040F10000003D507026E
:1002C400F176FD16E98E2390D70223800704C246F7
:1002D400F3A606800F10000037F500E0832605D151
:1002E40093E646002328D5D083D607026575110509
:1002F40093F60660C18EC98EC206C182733507802B
:10030400137585082ACA0F1000002380B7042380C0
:10031400C7040F10000003C5F70013650504A38785
:10032400A7002390D70223800704D246F3A60680B1
:100334000F1000001165618D1DE973370780137775
:1003440087083ACC0F1000002380B7042380C70429
:100354000F10000003C7B70413670702A385E7045F
:1003640023800704E247F3A707800F10000037F744
:1003740000E0832707D1DD9B2328F7D073005010BA
:100384000100010013078008F337078093F78708FB
:100394003ECE0F100000B717004093057005238070
:1003A400B704130680FA2380C7040F10000083D615
:1003B4000702C606C5822390D70223800704F246AB
:1003C400F3A606800F100000F336078093F6860824
:1003D40036D00F1000002380B7042380C7040F1009
:1003E400000003D80702F176FD16B3F60601239048
:1003F400D702238007048256F3A606800F1000005C
:100404000DED73370780137787083AD20F10000079
:100414002380B7042380C7040F10000003C7B70468
:100424001377F70DA385E704238007049257F3A7F6
:1004340007800F10000051453929F25062542161A0
:100444008280397152D481462A8A014681451145F8
:1004540022DC26DA06DE4AD84ED637140040792349
:100464008347E4020347E4049304800893F7C70F27
:100474001367370093E71700F3B6048093F68608F2
:1004840036C60F10000093097005230034051309C4
:1004940080FA230024050F10000023020402230025
:1004A4000404B246F3A606800F100000F3B60480DD
:1004B40093F6860836C80F10000023003405230085
:1004C40024050F1000002307F4022307E40423008B
:1004D4000404C247F3A707800F100000130550025D
:1004E400F928B7F700E003A707D11367470023A84B
:1004F400E7D073B70480137787083ACA0F10000057
:1005040023003405230024050F1000000347F400E2
:1005140013670704A307E400230004045247732766
:1005240007800F10000073B70480137787083ACC54
:100534000F10000023003405230024050F100000D1
:100544002167336AEA00231044032300040462474A
:10055400732707800F10000003A707D15D9B23A812
:10056400E7D0730050100100010081460146814527
:100574001145AD29F3B4048093F4840826CE0F10FA
:10058400000023003405230024050F100000FD574C
:100594002316F4028347640493E717002303F40447
:1005A40023000404F247F3A707800F100000F25061
:1005B4006254D2544259B259225A21618280B7F707
:1005C40007000111944B13078008F337078093F752
:1005D40087083EC20F100000B717004013087005CB
:1005E40023800705930580FA2380B7040F100000C9
:1005F40003C6B7041376F60DA385C7042380070446
:100604001246732606800F1000001376050255CE9D
:10061400F336078093F6860836C40F100000238053
:1006240007052380B7040F100000B70614007D8966
:10063400558D88C7010001000100010023800704D3
:10064400A246F3A606800F100000733707801377C5
:1006540087083AC60F100000238007052380B704DB
:100664000F1000000F1000003727004093061005FC
:10067400A303D78023800704B247F3A707800F1092
:10068400000093078008F3B7078093F787083ECEEE
:100694000F100000B7170040130770052380E7040C
:1006A400130780FA2380E7040F10000003C7B70480
:1006B40013670708A385E70423800704F247F3A719
:1006C40007800F100000056182801376050459C26B
:1006D400733607801376860832C80F100000238013
:1006E40007052380B7040F10000037061400130613
:1006F40006047D89518D88C70100010001000100B5
:10070400238007044246732606800F1000007337C7
:100714000780137787083ACA0F1000002380070563
:100724002380B7040F100000A54793F6F60F639ECD
:10073400F600B727004013073005A383E780B717F7
:10074400004023800704D2470DBFB727004013079A
:100754002005E5B773370780137787083ACC0F1065
:100764000000238007052380B7040F10000098477A
:100774001367070C98C723800704E247FDBD0111E6
:10078400814601468145114506CE8D249307800894
:10079400F3B7078093F787083EC60F100000B7171A
:1007A4000040130770052380E704130780FA2380B1
:1007B400E7040F10000003C76704136717002383BF
:1007C400E70423800704B247F3A707800F10000053
:1007D400F2400561828041118146014681451145FF
:1007E400312413078008F337078093F787083EC442
:1007F4000F100000B7170040130670052380C704CC
:10080400930680FA2380D7040F100000FD55239629
:10081400B70223800704A245F3A505800F1000004A
:1008240073370780137787083AC60F1000002380B8
:10083400C7042380D7040F10000003C7670413679D
:1008440017002383E70423800704B247F3A7078034
:100854000F10000001A0BD473305F50201007D150E
:1008640075FD8280411122C426C206C6AA840144B1
:1008740063179400B24022449244410182800504EB
:100884001305803E4204C13F4180DDB79305000259
:1008940073A0458082457390153492402242B2423F
:1008A4004243D2436244F244025592552256B25610
:1008B4004257D2576258F25806499649264AB64AD0
:1008C400464BD64B664CF64C065D965D265EB65E90
:1008D400465FD65F0961730020304111B7170040AD
:1008E400985F3AC6945F3247E39CE6FE3245410185
:1008F4008280B7170040130700032388E702854767
:1009040023A8F18C73002030E177371700409387D8
:100914000702231EF70873002030411106C6EF00BA
:10092400E07FF5BF975000E0E780E045730020309A
:100934002303048015472303E48001002302A480D9
:10094400828083076480E3CE07FE230304808280D1
:1009540083076480E3CE07FE0345448082808307D7
:100964006480E3CE07FE2302A4808280411126C462
:100974004AC24EC006C61377F50BAD47AA892E8925
:1009840095446306F70019456537653F8D444E85E8
:100994004537FD59FD1463983401B240A24412490D
:1009A400824941018280135509011375F50F453FB2
:1009B4002209CDB7011126CC06CEB7040800513761
:1009C4001545BD37713769372AC6A53F3245937738
:1009D400150089EB136515001375F50FF240E24419
:1009E40005618280FD14E9FC0145CDBF397126DC27
:1009F4004ADA4ED852D656D45AD25ED006DE62CEE9
:100A040066CCB7E700E07D5783AA070022C603AA95
:100A1400470023A0E71823A2E718B71700401307DD
:100A240070052380E704130780FA2380E70483C753
:100A34004704930B75FFB684E20793FBFB0F8546CF
:100A4400AA892E8B328937240040E187015763FA43
:100A540076016308D5008946130700026313D500A5
:100A64000157D98F93F7F70FB71C00402382FC047A
:100A740011472303E4801305F00F5D3D094CD13584
:100A8400636D7C11B7050700DA9537870700795540
:100A940063F2E504B3879500636EF702370B080031
:100AA400A94733EB65016399F90689E48144513D13
:100AB40026850DA0DA850945553D05090345F9FF4D
:100AC400FD14050B693D81C49377FB0FFDF7DD35FC
:100AD40069FD7D55B7170040130770052380E704AF
:100AE400130780FA2380E70403C74704418B23825A
:100AF400E704F250B7E700E023A0571123A24711FF
:100B0400E25432445259C259325AA25A125B825B9D
:100B1400724CE24C21618280A5476395F906856990
:100B24001309F00FB3069900B3742B01B69413495B
:100B3400F9FFB3749900856B33796901416B93872D
:100B4400F9FFB3F7270199E363FC340193D9490012
:100B5400C147E3E637FF99BF0569C1697D19D9B774
:100B64001305800D6388690113050002638479010C
:100B740013051008CA85DD3B353D21DD4E99B3844C
:100B84003441D9B7DA852D45D533CA94E30099F2B7
:100B940005097D3BA30FA9FED5BF9387F9FF93F702
:100BA400F70F6361FC0C83C71C0413073008631F31
:100BB400F70437070800636BEB04B3079B00B70621
:100BC400100063F5D704334BEB0089476393F906B0
:100BD4008980D549E38C04ECDA850945413B110948
:100BE4000327C9FF91472320E48003076480E34E71
:100BF40007FE23033481FD17EDFBFD14110B81C4A3
:100C04009377FB0FE9FF7D3371F5E1B5B71700402A
:100C140003C75704B70708001377070219E3B78718
:100C240007007955E378FBEA33079B00E3FFE7F815
:100C340055B58547E382F9F2DA852D45053B93895D
:100C4400F4FFE38504E6293393F7390091EB832617
:100C540004800327090093074900E39AE6E43E89E8
:100C6400CE84F1BFB5476396F9001305900BC931E3
:100C740035BDB1471305B00AE38BF9FE994763917B
:100C8400F904B7050800B365BB002D45C53181449F
:100C94008D4BA14975396396740183270480232001
:100CA400F9008504E39834FF8327048013172B018C
:100CB400635507002312F900D5BB2322F900FDB3C5
:100CC4009D476399F90281451305B0044531BD443C
:100CD4002320090023220900FD599D3993F774004C
:100CE400CA9703C70700FD14398D2380A700E39634
:100CF40034FF6DBBA1476392F9046D398144630DE0
:100D04000B008D479304C0036308FB0093040005A4
:100D140063048B01930440041375C507E30895D855
:100D24001945393139390545213126850D390945AA
:100D34003D314931E31C05D669BB91476399F900FC
:100D440013056006F536F53E130590090DB7E38FDC
:100D540009D4F154A9BB0000197106C212C416C605
:100D64001AC81ECA22CC26CE2AD02ED232D436D6C7
:100D74003AD83EDA42DC46DECAC0CEC2D2C4D6C6B7
:100D8400DAC8DECAE2CCE6CEEAD0EED2F2D4F6D6A7
:100D9400FAD8FEDA9385818C8841E70005009240F9
:100DA4002242B2424243D2436244F2440255925533
:100DB4002256B2564257D2576258F25806499649BB
:100DC400264AB64A464BD64B664CF64C065D965DB3
:100DD400265EB65E465FD65F096173002030B7E7D2
:100DE40000E09843B706200023A0D718758F0F1092
:100DF400000001C599C1814711E6B7E700E023A0CF
:100E0400E7108280B386F50003C80600B306F50038
:100E1400850723800601E317F6FEC5B737E700E030
:100E24001C43B70620002320D718F58F0F100000AD
:100E340019C191C111E637E700E02320F710828041
:100E4400910503A7C5FF11057D16232EE5FEDDB729
:100E540037E700E01C43B70620002320D718F58F9E
:100E64000F10000001C53307C50011E637E700E0A5
:100E74002320F71082800505A30FB5FEE31DE5FED0
:100E8400F5B7B7E700E09843B706200023A0D718CA
:100E9400758F0F1000008147B306F50083860600A6
:100EA40099E6B7E600E023A0E6103E858280850738
:100EB400E5B737E700E01C43B70620002320D71826
:100EC400F58F0F10000001C599C1014711EA37E7FA
:100ED40000E02320F710054582800507E309E6FEBC
:100EE4003308E500B386E5000348080083C606001E
:100EF400E305D8FE37E700E02320F71001458280A0
:100F040037E700E01C43B70620002320D718F58FED
:100F14000F1000001307F6FFBA952A966317C50051
:100F240037E700E02320F7108280FD1503C7150082
:100F34000505A30FE5FEDDB737E700E01C43B70660
:100F440020002320D718F58F0F10000001C53307A8
:100F5400C50019E637E700E02320F7100145828039
:100F640005058346F5FFE397B6FEE31BE5FE37E789
:100F740000E02320F710054582807971974700002F
:100F84009387C78B22D4804306D626D24AD04ECE2E
:100F940052CC56CA5AC85EC669C037C9C901014B8A
:100FA40097490000938909891309F937174A000002
:100FB400130A0A89974A0000938A0A839744000017
:100FC4009384C48C8357240095E35C44631D0B0015
:100FD400174700002324F786832BC4002285EF00E3
:100FE400F0225E84A9A82326FB00FDB783A709008D
:100FF40082971C443307F5406375F500D8401D8F74
:101004002A976361E9089737000023A7077E835571
:10101400240003450400976000E0E78020C35C409F
:101024005844B9C70C44D040AE97BE8663E4B700B9
:1010340063E4C700B386C74014C4228B3A8459F0D2
:10104400973700009387477A9C4B09476373F708E7
:10105400F917173700002321F77AB250225492541B
:101064000259F249624AD24A424BB24B45618280EC
:1010740063170B009737000023A2E77CB1BF232638
:10108400EB0099BF03274A021DCF63E1A704338510
:10109400A7408347040085E3173700000347B77B65
:1010A4005917B307A7003E85D44063E4E70063E41F
:1010B400D7003385D74083A70A016376F5009737B5
:1010C400000023ABA772228B404495BFD840BA9747
:1010D4007DBF9737000023A1077241B797370000FF
:1010E4009387477A9C4385C3411106C682979737F5
:1010F400000083C7077489E79737000023A40778A3
:10110400B240410182809737000083C7877291E71C
:101114009737000023A8077682808280411122C479
:10112400173400001304046F1C4006C626C24AC0CC
:1011340091C782979737000023AE076C974700004A
:1011440083C7178E858B174900001309298D89CF12
:101154008347790019476312F71097470000A3816A
:10116400078C3D235C4482971C4491C38297973437
:1011740000009384646C9840173600000346D666DA
:101184009737000083C7476693961700BA9683D6AD
:101194000600E5C29737000083C7076563E5C70EFD
:1011A40097370000238207641C40639E0714973717
:1011B4000000938727689C436387071497370000D0
:1011C4009387C76CDC43173700002327F762753316
:1011D4009747000083C73785639707129747000036
:1011E40083C7578491CF8347790093F7F70F89EB2F
:1011F40097470000A3880782976001E0E780201FDB
:10120400973700009387C763DC53638E070E9737C5
:1012140000009387675D9C4BFDC7834779001547A2
:101224006363F70E9747000083C7C784918BE1EF90
:101234009737000083C7E75FF9E7904097360000CF
:1012440083C6965A63C7D70C2244B24092440249DB
:101254004101176300E067008301834779001D475C
:10126400E314F7F097370000A38C077A15211C4884
:10127400DDBD850793F7F70F973600002386F656F2
:10128400E3E0C7F001BF86073E97835507002310AC
:10129400070097370000239D07589737000093876E
:1012A40027579C43173500000345055413172500A1
:1012B400BA979C4382979737000083D767571737AD
:1012C40000000347675293C7F7FF7D8D93171700FC
:1012D40098403E97835707005D8D2310A7009737EA
:1012E400000083C7675091C7850717370000230D97
:1012F400F74E173700000347274F9737000083C77F
:10130400B74EE37FF7E8B2402244924402494101D8
:101314008280139717003297035707006DF78507EC
:1013240015B737C700408326C720B707FCFFFD1752
:10133400F58F2326F72001000100973700009387DB
:10134400A74AC84F832787262326D7206A0593C731
:10135400F7FF99835D8D8280011197370000938791
:10136400677D22CC03A4070C26CA06CE2AC42EC647
:10137400854419E40145F2406244D2440561828007
:101384008347910003471400858B6304F7000044EE
:10139400CDB719469305A10013052400193EE3189F
:1013A40095FE0545C9BF0000EFF05FD37300000050
:1013B40000000000973200009382A24703830200DA
:1013C40023800200630F0300F32510342EC0970519
:1013D40000009385A5FD73901534EF00204E730033
:1013E400203086DCEF00804DE65082800000173705
:1013F4000000130767621443411122C49C5E4AC073
:1014040006C6998326C2858B3A84173900001309CE
:101414006960D1CB930700069CDE173700000347B1
:10142400476093070008973400009384245F631B8C
:10143400F700832709009C4393F70704173700003C
:101444002301F75E83C7040093F707049DC397370E
:1014540000009387273E9C4382979737000023AD73
:10146400A75C83C7040093F7F70B17370000230723
:10147400F75A83C7440093F7070495E7854717375E
:101484000000A30FF758973700009387A75B9C438E
:101494003707020098C7130700FC97360000238122
:1014A400E6589848F8D318401C5F9183858B8DC308
:1014B4001C5F93E707011CDF973700009387875869
:1014C4009C4323A20706854717370000230AF754D5
:1014D40083270900D8430583058B19C7D843759B17
:1014E400D8C3D843799BD8C3B2402244924402491A
:1014F40041018280ED3D730020309317D50063D302
:101504000702973700009387E7539C437D57B8D76A
:10151400973700009387472DDC4F85071737000066
:101524002322F72E937785009DCB9737000083C73E
:10153400074F93E71700173700002302F74E93076E
:1015440000F817370000230DF74C973700009387F6
:10155400A74C98435C57F19B93E717005CD79377AC
:1015640015008DC79737000083C7574B93E71700C3
:1015740017370000A304F74A973700009387C74939
:1015840098435C57F19B93E717005CD7937765000A
:1015940095CB937745001737000013072748CDCB29
:1015A4008347070093E71700173700002308F7461F
:1015B400973700009387474698435C57F19B93E71E
:1015C40017005CD79317F50063D4070217370000A0
:1015D4000347C75D418B973700009387A75551C3D5
:1015E40083C7870793E70702173700002300F75CD8
:1015F4009317E50063D707029737000083C7474274
:10160400E207E18763D707008547173700002309FE
:10161400F740973700009387E7429C43370702005F
:1016240098C79317C50063D4070217370000034710
:10163400F757058B973700009387C74F29C383C794
:10164400970793E7270017370000A301F756828016
:101654008347370093E7170017370000A301F73CCF
:1016640081BF03C7870789463D8B6308D70083C7BB
:1016740087070D47BD8BE39DE7F69147B5B703C7D1
:101684009707118B69D783C7970793E7870065BFCF
:10169400973700009387073B94439737000093875D
:1016A400E73703C70700058B11CB97370000238961
:1016B400073697370000A3850736828003C71700D3
:1016C400058B65F7F85271FF83C75700DDB71737ED
:1016D40000001307673403280700832788039583D2
:1016E400858BADEF11C683270803BD832300F60065
:1016F4009DC61C43985B46079357670163560700D2
:1017040093E707C0C207C18303970600C207C187D6
:1017140009C7BA970947B3C7E7022390F6008DCDEE
:101724008345150095C99737000083C7872F93F722
:10173400070413879500894585C33A9583470500B7
:101744000547994593F6F7066398E600E207E187B3
:10175400814563D30700B9452E8582808545EDBF59
:10176400411126C206C622C4973400009384842DF6
:101774003DED9440AE87F8527DFF37F400E03E859E
:1017840097370000238D0728832704D1B285ED9B6A
:101794002328F4D0832704D193E787022328F4D0A5
:1017A40073005010976001E0E780C0AB97370000EA
:1017B400938787269C43B70680009843558F98C328
:1017C400D857719BD8D797370000A38B0724973736
:1017D4000000A38507249C40094798C3832704D1AC
:1017E40093E787002328F4D0730050100DA08D4791
:1017F4006315F50497370000938707229C43B706C7
:1018040080009843558F98C3D857719BD8D794407C
:10181400173700001307872083472700858B89EB40
:1018240083473700858BC1CB97370000238A071E77
:10183400B24022449244410182808547E319F5FC79
:10184400B7F700E003A707D16D9B23A8E7D003A750
:1018540007D11367870223A8E7D07300501098407C
:101864008177FD175447F58F5CC70F10000098402F
:10187400B70702001CC7930700F8173600002301BE
:10188400F61A97370000938727199C439C439D833E
:10189400858B639FA700930760197CD354C737F7E0
:1018A40000E0832707D193E787002328F7D02DBFD3
:1018B4009307E01BDDB7FC52A5F39DBF97370000EB
:1018C400938747189C438847D847798D09C988C7A7
:1018D4009387819C03A30700630303000283828030
:1018E400973700009387071698438967938707F40F
:1018F4007CD3973700009387271A9C4383A6070954
:10190400139656006358060083A6070913966600CB
:10191400634406007453FDF282804111B7E700E08E
:1019240022C480433707200006C6798C23A0E71819
:101934000F10000011C199E5B7E700E023A087105C
:1019440001457DA893073500C207C183F19BC207F7
:10195400C183130740036369F702173700001307B5
:10196400E71C0843173700001307C71B144363928F
:10197400A602173700001307A7EC185B55DFC20750
:10198400DD8D054502974DBF173700001307C719B2
:10199400C9BF035765002DEB035745006366F7067F
:1019A400B306F7402146637CD602032805009386DC
:1019B40087001D8FAA96611717360000035626E389
:1019C4002392E60023A006012393060014C12312E8
:1019D400F500130786FF97360000239AE6E02313E9
:1019E400B5009735000083D585E0B387F5401737F8
:1019F4000000231EF7DEB7E700E023A087102105CF
:101A0400B240224441018280084195B7B7E700E023
:101A14008C433707200023A0E718F98D0F1000002E
:101A240001E523A0B7108280973700009387071041
:101A340003A30700973700009387C70E83A8070006
:101A440081469A8763F2170D03A807006361F50CBA
:101A5400636FA80A138787006368E50A03D66700E3
:101A6400216705076317E60003C7019C0507238068
:101A7400E19C17350000130525D703D6470003570B
:101A8400650023930700329742074183173E000005
:101A9400231FEED4638C6702173300001303C308BB
:101AA400032303006304F30203D3660063100302F9
:101AB40083D7460023A0060121073E9621062392E0
:101AC400C600973700002394E7D2B6879843630D86
:101AD4001703973600009386260594426306D702BF
:101AE4008356670095E283D64700035647001843A0
:101AF400A106B2962392D70098C383576500A10725
:101B0400173700002315F7CEB7E700E019BFBE86EC
:101B1400C2870DBF03278511630407120346E5043A
:101B2400854663000612411122C406C68347C500D8
:101B34002A8493F7C70F2306F500834597000358BB
:101B4400C70013958501618563700609635905060D
:101B54000345870093F5F507A304B70093E5270031
:101B64006314D50093E517002306B4005C4389078A
:101B74005CC3A30AC400032504114C430905EFF018
:101B84000FA68327841103465401D44303D7C70007
:101B9400B296118FD4C32396E7008947A30DF400AE
:101BA400034764039737000083C7A7CA6377F70422
:101BB4008347C40093E707012306F4003DA893E795
:101BC40017002306F40075B71376F80F635D05025A
:101BD4000345870093E527006314D50093E51700B8
:101BE4002306B400A30AC400A30407008547A30D79
:101BF400F400832784119C43C5F7B24022448146F4
:101C040036854101828093E717002306F400A30A76
:101C1400C400A3040700032504114C4342860905AC
:101C2400EFF0EF9B8327841103465401D44303D779
:101C3400C700B296118FD4C32396E7008D4745BFE2
:101C440085463685828097370000938767019C43D9
:101C5400411122C406C6858B2A84C5EF416513054C
:101C640025F5972002E0E780C0D645C58347A50047
:101C74002315F50083270412BDE72320A412232291
:101C8400A41285472311F40423200500834764012B
:101C940054412316F5000347D4002304E500054707
:101CA400A304E50017370000130747D758531385DB
:101CB400170215811C437D151375F50F9CC25C43F7
:101CC400DCC21C479CC65C47DCC61C4B9CCA5C4BF4
:101CD400DCCA1C4F9CCE5C4FDCCE19CD9386060229
:101CE40013070702C1BF8327441288C38357240400
:101CF4002322A412850779B79737000083D707E416
:101D0400850717370000231BF7E2B2402244410144
:101D140082808347C40023090400054593C7470014
:101D24002306F400DDB78347850193F7E70FD5EF6A
:101D340083479501DDEB034625018346C50009CAA7
:101D440083456503173700000347B7B063E7E50031
:101D540013F7060141CF014709C6C18A0357651C21
:101D640081C68356A51C369751C31307C71217356E
:101D74000000035525B2B335A70237460F004111C1
:101D840013060624814622C426C206C67D543305A2
:101D9400A702975002E0E780E09F9737000083C7CF
:101DA40097ABB384A700973700009387A7D803A7FE
:101DB40087098327070963F387003E84184375FB6B
:101DC40097370000938707A79C43829781476364F2
:101DD400A400B307A440B2402244B3B7970093C70A
:101DE400170092443E854101828081473E8582806E
:101DF40097370000938707C598433C5BFDFF0100BC
:101E040001008280011122CC4AC84EC606CE26CAE1
:101E140052C456C25AC00347B50085472A842E8946
:101E2400832905096311F72683570508835AC503D7
:101E3400173A0000130A8AA5173B0000035B8BA521
:101E440063FB5721834605016397E6200327851129
:101E5400631307200327450A631F071E8346F50003
:101E64001D47639AE61E03471401B38AFA4013958B
:101E74000A01418121CF9377170099CB8357E40559
:101E840083560404958F63D5A700139507014181F8
:101E94009377270099CB8357E41283560404958FD4
:101EA40063D5A7001395070141819377070199CB67
:101EB4008357C41483560404958F63D5A7001395E0
:101EC40007014181218B11E311E105450357A40367
:101ED4009307204E832444093305A70237460F0095
:101EE4008146130606243305F5029737000083C79D
:101EF4008796B3549502B335AB02BE94C204C18035
:101F0400231394083305AB02975002E0E7808088DE
:101F1400B307350133B5A7002E953E8783264A00C3
:101F240019E163E4D7003387D740B3846403B74629
:101F34000F009387F623938606242320E900A697AF
:101F4400B3D7D702D6976362F7101D8F2320E90019
:101F5400973900009389098E83A709008324090017
:101F6400829763E5A4123385A4406354050C83A7C8
:101F740009008297032709006361E512198D8357CD
:101F8400E403173700000357E7908E07B387E7028F
:101F94001307003293870719B3D7E70263E7A71043
:101FA400374A0F00130BFA23973A0000938A0A8EDC
:101FB400130A0A248357040485072310F40483476F
:101FC400041499E3228559222285971002E0E780C0
:101FD400C09375E9832604098327C40803A74A002C
:101FE400B6973E8563E4D70063E4E7003385E740B2
:101FF4008347F401835464082328A4088507A30FA6
:10200400F4009737000083D7E788B384F402DA94A6
:10201400B3D444036368950CB304954083A70900C3
:1020240023209900829763E3A40C3385A440E343FF
:1020340005F89737000083C7178263E7A708973727
:10204400000023A987B8014541A083264A00B3872D
:10205400F6403E97E5BD8354640837470F00930765
:10206400F723B3846403BE9493070724B3D7F4021D
:1020740063E7F900B387F9402320F900D1BD0327B2
:102084004A00BA99C5BF23A03501D9B597270000E6
:102094009387C77FDC43BE94F9B5972700009387E5
:1020A400E77EDC43998F3E95D9BDA14522859700F3
:1020B40002E0E780607EA305A402972700009387CF
:1020C40027789C5B81EF7D55F2406244D2444249BB
:1020D400B249224A924A024B0561828089451545DC
:1020E4008297D5B7B3049740AA940DBF83A74A003B
:1020F400BE9425BF39C901116C0022CC06CE2A84B6
:1021040011331DCDFD576302F502B2479725000038
:1021140083C5757463EFB70003459402B385B74074
:102124002EC6975000E0E78020CAF2406244056161
:10213400828017270000130767755843BA97E9BFD1
:10214400971002E0E780E039CDB78280797126D21A
:1021540006D622D44AD04ECE52CC56CA5AC85EC6EF
:102164008347550303447513AA843E941374F40FF0
:102174009307400263F687001304B4FD1374F40F4D
:1021840003AA841383AAC413A38B841222865285C0
:10219400D685974002E0E780E01C058915E503CB6E
:1021A400D41201498149337B6403930B50024A865C
:1021B4005285D685974002E0E780C01A058915C587
:1021C400639169031374F90F238B8412B250225460
:1021D40092540259F249624AD24A424BB24B456187
:1021E40082808509E20993D989410509E31179FDC2
:1021F400E1BF8327850903560504797193D6070146
:10220400BD8EC206C182358E135776409357564011
:10221400898B058B5D8F93573640918B5D8F9357D8
:102224001640A18B5D8F93171600C18B5D8F93179A
:10223400360093F707025D8F931756009355860077
:1022440093F707041E065D8F1376F60F518F93D70D
:10225400554013D63540118A898BD18F13D67540DA
:10226400D18F13D61540218AD18F13961500418A38
:10227400D18F1396350013760602D18F139655002D
:10228400137606049E05D18F93F5F50FCD8FA20723
:1022940045465D8F3307C70222D42A8426D252CC06
:1022A40056CA032A8413832AC4135AC806D63697F7
:1022B4004207418393577740135557400989858BCB
:1022C400C98F135537401189C98F13551740218978
:1022D400C98F131517004189C98F1315370013755A
:1022E4000502C98F1315570093558700137505040C
:1022F4001E07C98F1377F70FD98F13D5354013D71E
:1023040055401189098B498F13D57540498F13D5D1
:1023140015402189498F139515004189498F1395DB
:10232400350013750502498F13955500137505047F
:102334009E05498F93F5F50F4D8F2207D98FB387EB
:10234400C7024AD04ECE5EC662C4B697C207C183E6
:1023540013D7774013D557400989058B498F13D577
:1023640037401189498F13D517402189498F139517
:1023740017004189498F1395370013750502498F5A
:102384001395570093D58700137505049E07498F4D
:1023940093F7F70FD98F13D5354013D755401189CB
:1023A400098B498F13D57540498F13D51540218961
:1023B400498F139515004189498F1395350013757D
:1023C4000502498F13955500137505049E05498F21
:1023D40093F5F50F4D8F2207D98FB387C7021306E4
:1023E40050025285D685B697BD8E93940601C1805E
:1023F40033F6C402137BF60F974002E0E78080F6C1
:1024040005890DED8347D41201498149B3849702AC
:10241400130C5002C1804A865285D685974002E04B
:10242400E78040F40589937BF90F11C56386340373
:10243400850993F9F90F0509E31F89FD230B64133B
:10244400B250225492540259F249624AD24A424B3F
:10245400B24B224C456182805E8BCDB70111972728
:1024640000009387276D22CC03A4870C26CA4AC890
:102474004EC606CEAA8413092500854915C083C714
:10248400140003473400858B6304F700405CFDB7F8
:102494001946930544004A85EFE0BFA1E31835FFD0
:1024A4002285F2406244D2444249B24905618280A5
:1024B4004111972700009387E76722C403A4870C80
:1024C40026C24AC006C693042500054901E82285B0
:1024D400B24022449244024941018280A6851305F8
:1024E400A402972002E0E780805EE30225FF405CBF
:0424F400F1BF000034
:1024F80097110020938181D51741002013010130E5
:102508001305400097E5FF1F938545AF1706002088
:10251800130606FE63FAC5008322050023A05500B2
:1025280011059105E3EAC5FE17750200130585013B
:10253800970500209385C5FB1386018863FAC500BB
:102548008322050023A0550011059105E3EAC5FE85
:102558001385018897250020938585716377B500D9
:10256800232005001105E36DB5FEFD42739002BC02
:102578008D4273904280930280087390023097E2F4
:10258800FF1F9382A2A793E23200739052309732D2
:1025980000009382023973901234730020303D4357
:1025A8002A876373C3029377F700BDEFADE593768F
:1025B80006FF3D8ABA960CC34CC30CC74CC74107EB
:1025C800E36BD7FE11E28280B306C3408A06970206
:1025D800000096966780A6002307B700A306B700F9
:1025E8002306B700A305B7002305B700A304B70067
:1025F8002304B700A303B7002303B700A302B7005F
:102608002302B700A301B7002301B700A300B70056
:102618002300B700828093F5F50F93968500D58D3A
:1026280093960501D58D61B7939627009702000010
:1026380096968682E78086FA9680C1171D8F3E9609
:10264800E374C3F8A5B7B717004083C5870503C867
:10265800970503C7970593F5F50F1378F80F1367D8
:102668008700A38CE70403C797051377B70FA38CDC
:10267800E70403C7A70513671700238DE704371777
:1026880000408347A705858BEDFF0565C1463717D1
:1026980000409308F5FF0346A70513661600230DAF
:1026A800C7040346A705058A6DFE0356C705FD1630
:1026B800C2061346F6FF33761601C182B297E1FED1
:1026C800A1079183130505801D8DA30C07054205FD
:1026D800230CB70441858280B717004003C77705EC
:1026E8001A051377E70FA38BE70413974500598D55
:1026F800136535001375F50FA38CA70403C7A70549
:10270800C18991C513672700238DE7048280137759
:10271800D70FDDBFB717004003C777051377E70F5B
:10272800A38BE704130700F8A38DE7043D47238C28
:10273800E70413075003A38CE70403C7A70513771F
:10274800D70F238DE7048280371700408347A705FA
:1027580093E71700230DF7048347A705858BEDFF43
:102768000355C705520551818280B717004003C73A
:10277800E7020D8941111377C70F498F9306800827
:10278800F3B6068093F6860836C60F100000930647
:1027980070052380D704930680FA2380D7040F108E
:1027A80000002387E70223800704B247F3A70780C6
:1027B8000F1000004101828041112A83014E930EBF
:1027C800407E130F0019930F400663E56E129308BD
:1027D800001913034006B3781503854E0D4FA14F1A
:1027E800337365020D891335150063EFBE121308A4
:1027F800F6FF794672984208135808013307C70252
:1028080013D61700BE0732976146B3F6C602130601
:102818008070B386C6023697A166F58F42075D8F32
:10282800B716004083C7F60293F70708A303F10021
:102838000346710083C7F60293F70708E394C7FEBF
:1028480083477100B716004093F7F70F63880712A4
:1028580093078008F3B7078093F787083EC40F10E3
:102868000000B7170040930670052380D70493062D
:1028780080FA2380D7040F10000023AA070383C619
:10288800170393E60608A388D70223800704A24704
:10289800F3A707800F1000001166B71700407D16D8
:1028A800D45BC85F93854703A98EF18EF5FA93062A
:1028B8008008F3B6068093F6860836C60F10000027
:1028C800930670052380D704930680FA2380D704E3
:1028D8000F10000098C103C7170313670704A388E4
:1028E800E70223800704B247F3A707800F10000010
:1028F800410182807D133368E3039308E016630E79
:1029080008003368F3039308D01663080800937827
:10291800330093B818009388D81633081E01131E85
:102928000801135E0E0155B56393E50305486386F8
:1029380008000148630303002A8871087298FD158E
:10294800131E0801C205135E0E01C18179BD13F87B
:10295800150063F4BF007908D5B713381800E5BF30
:1029680083C7F60293F70708A303F1000346710033
:1029780083C7F60293F70708E394C7FE83477100FD
:1029880093F7F70FF1DFE9B531714AD966CB06DF66
:1029980022DD26DB4ED752D556D35AD15ECF62CD33
:1029A8006AC96EC7AA8C02D8EF00F04E2A8993072D
:1029B8008008F3B7078093F787083EDA0F10000006
:1029C800B7170040130770052380E704130780FA40
:1029D8002380E7040F10000003C7F7021377770F6F
:1029E800A387E70203C7F70213678700A387E702F5
:1029F80023800704D257F3A707800F10000005456E
:102A0800AD33130780C13347E902116A93070AE817
:102A180093065002BD69930BA004814A014B13042D
:102A28008008930470057D1AB347F9023307D7026B
:102A38003EC0FD873ECC938709A69309803E334765
:102A4800F7023AC27D873AC4334739038549B399B7
:102A5800990193D93940B306D702B30B7703B3C6AC
:102A6800F602B3CBFB0236C6FD8636C893D6FB41C9
:102A780036CEB7460F00938606243349D9028566B9
:102A8800938606FAB3969601B389E902130760554F
:102A98003309D90293060010B389E9023349D902F0
:102AA800B3C9F9029316390036CA37190040FD86B2
:102AB80036D0930D090493D7F9413ED2F3360480FA
:102AC80093F6860836DC0F10000093077005238004
:102AD800FD00930680FA2380DD000F100000834676
:102AE800390593F6860FA309D9048346390593E679
:102AF8001600A309D90423800D00E256F3A6068028
:102B08000F100000130C80FA116DF336048093F651
:102B1800860836DE0F100000930770052380FD003D
:102B280023808D010F10000083463905216693E646
:102B38000602A309D90483560905B3E6A60123189A
:102B4800D90483560905D18E2318D90423800D0092
:102B5800F256F3A606800F1000008346390593F657
:102B68000602638B061803463905218A6DDE0818AC
:102B7800EF0070367336048013768608B2C20F10E1
:102B8800000023809D0023808D010F100000B717DF
:102B9800004003C637051376F60DA389C70403C69C
:102BA800370513660602A389C704835609052166FB
:102BB800B3E6A6012318D90483560905D18E231834
:102BC800D90423800D009646F3A606800F10000056
:102BD8008346390593F6060263870614834639054A
:102BE800A18AEDFE97D0FF1FE780604AAA8636D4F7
:102BF80097D0FF1FE780A049A256E30AD5FE835667
:102C080009054255B3E6A6012318D904EF00B02EF2
:102C180083463905A18AEDDE035609058346290551
:102C280082473376CA00B306DA0293D5F641B296E4
:102C3800B388F640E24733B8C6002E983308F84008
:102C4800A247B3B616013308D84063C70701631D0E
:102C5800F800924763FA1701C247634DF80E63956F
:102C68000701B24763E8F80E894663E7660FF24644
:102C78009315180013D3F8015E8613951800B365F1
:102C8800B30042D646D4EF30A2723258050B137BFC
:102C9800FB0F6347000163140838A25863810838A2
:102CA80013081500B336A800B69513D6F501329867
:102CB800B336C800AE9613581800FE06B3E60601F0
:102CC8007336048013768608B2C60F10000023807E
:102CD8009D0023808D010F1000000356C902B29693
:102CE800C206C1822316D90223800D00B646F3A678
:102CF80006800F10000011BDF336048093F6860895
:102D0800B6C00F10000023809D0023808D010F1096
:102D180000008346390593E60602A309D9042380F7
:102D28000D0086463DB5F336048093F68608B6C492
:102D38000F10000023809D0023808D010F100000DC
:102D48008346390593E60602A309D90423800D00BA
:102D5800A6469DBDE30D0BF0F336048093F6860876
:102D6800B6C80F100000930680FA23809D002380C8
:102D7800DD000F1000008346390593F5FC0F93F62C
:102D8800860FA309D90483463905CD8EA309D90432
:102D980023800D00C646F3A606800F100000130519
:102DA80080FA03463905930639051D8A6316962964
:102DB8007336048013768608B2CC0F100000130611
:102DC80080FA23809D002380CD000F10000003C6E9
:102DD80006001376F60D2380C60003C606001366A8
:102DE80006022380C600835609051166D18E231872
:102DF800D904835609052166D18E2318D904238066
:102E08000D00E646F3A606800F100000130680FAB0
:102E18008346390593F60602638A062483463905F4
:102E2800130C3905A18AFDDA0818EF00D00AF33629
:102E3800048093F68608B6D00F100000930680FA37
:102E480023809D002380DD000F10000083460C00C6
:102E5800116693F6F60D2300DC0083460C0093E61A
:102E680006022300DC0083560905D18E2318D904F5
:102E7800835609052166D18E2318D90423800D00B5
:102E88008656F3A606800F100000130680FA8346C4
:102E9800390593F606026386062083463905A18A1A
:102EA800EDFE97D0FF1FE780801E2A8C97D0FF1F6A
:102EB800E780E01DE30C85FF83560905116642553E
:102EC800D18E2318D904EF00100383463905130661
:102ED8003905A18AFDDAF336048093F68608B6D45C
:102EE8000F100000930680FA23809D002380DD00E8
:102EF8000F1000008346060093F6F60D2300D60057
:102F080023800D00A656F3A606800F1000008356F6
:102F1800090503462905D247B376DA003306CA0203
:102F28001305800C9355F6413696330DF6408257BB
:102F3800333CD6002E9C3336A601330CFC40330CB0
:102F4800CC403308850392564E86B335A503330526
:102F5800A503C295EF30C24563468001631E0C1677
:102F6800630C0D16130615003335A6002E959356DF
:102F7800F5013696B335D600AA959396F5010582E4
:102F88008585D18E6346B000639D051A638B061A4A
:102F98000356C90215823305D6003336C500B295EB
:102FA8006348B000639105241306F00F637DA622E1
:102FB800894663F3561593078008F3B7078093F79C
:102FC8008708BED60F10000037170040930770051A
:102FD8002300F704930780FA2300F7040F1000007A
:102FE8008356C70289678117D58FC207C183231605
:102FF800F70223000704B657F3A707800F10000055
:10300800FA506A54DA544A59BA592A5A9A5A0A5BEF
:10301800FA4B6A4CDA4C4A4DBA4D29618280130842
:10302800F5FF3335A800FD152E951356F501329896
:10303800B336C800AA9641B1F336048093F68608E1
:10304800B6CA0F10000023809D002380AD000F102A
:10305800000083463905CD8EA309D90423800D00CD
:10306800D646F3A606800F10000025BBF336048071
:1030780093F68608B6CE0F10000023809D002380AB
:10308800CD000F1000008346390593E60602A30918
:10309800D90423800D00F646F3A606800F10000021
:1030A80085BBF336048093F68608B6D20F1000006D
:1030B80023809D002380CD000F1000008346390532
:1030C80093E60602A309D90423800D009656F3A6B9
:1030D80006800F10000065BB9306F5FF33B5A60008
:1030E800FD152E959355F501AE96B3B5B600AA9584
:1030F8001396F501858269B5F336048093F6860840
:10310800B6D80F100000930680FA23809D00238014
:10311800DD000F1000008356C9020566011693F6FC
:10312800F60FD18EC206C1822316D90223800D0064
:10313800C656F3A606800F100000850A93FAFA0F08
:10314800B5BA33E6B60045C20356C9023305D040C6
:103158003338A000B305B040B385054115826345F7
:10316800B000D1E16371A608894663F0560593075C
:103178008008F3B7078093F78708BEDA0F100000BE
:10318800B7170040130770052380E704130780FA78
:103198002380E7040F10000003D7C7027D8B239616
:1031A800E70223800704D65781BDF336048093F6DF
:1031B8008608B6DC0F100000930680FA23809D0075
:1031C8002380DD000F1000008356C9020566011632
:1031D80093F6F60FD18EC206C1822316D902238038
:1031E8000D00E656B9B793078008F3B7078093F741
:1031F8008708BEDE0F1000003717004093077005E0
:103208002300F704930780FA2300F7040F10000047
:103218000356C70293975600B297C207C183231675
:10322800F70223000704F657C1BB4111B7F50700A1
:1032380022C481462A842A86E105194506C697D004
:10324800FF1FE780607A8347140003470400834622
:103258002400A207D98F03473400B2402207558FB4
:10326800BA9703475400834644002207558FBA97FC
:10327800C207C1832303F400A183A303F4002244FB
:1032880041018280914763EEB70217570200130786
:1032980067CC8A05BA959C41BA978287B7170040D0
:1032A80003A7470B1345F5FF698F23AAE70A03A76E
:1032B800070B698F23A8E70A03A7070A798D23A0BC
:1032C800A70A8280B717004083A6470B1347F5FF6C
:1032D800F98E23AAD70A83A6070B558D23A8A70A18
:1032E80083A6070A758F23A0E70A8280B7170040D4
:1032F80003A7470B498F23AAE70A03A7070B134520
:10330800F5FF45BFB717004083A6470B1347F5FFE6
:10331800758F23AAE70A03A7070A598D4DB7B71770
:10332800004003A7470B498FEDB7914763EEB702FB
:1033380017570200130747C38A05BA959C41BA97E5
:103348008287B717004003A7470D1345F5FF698F1C
:1033580023AAE70C03A7070D698F23A8E70C03A787
:10336800070C798D23A0A70C8280B717004083A68D
:10337800470D1347F5FFF98E23AAD70C83A6070D2F
:10338800558D23A8A70C83A6070C758F23A0E70CDF
:103398008280B717004003A7470D498F23AAE70C7F
:1033A80003A7070D1345F5FF45BFB717004083A6D0
:1033B800470D1347F5FF758F23AAE70C03A7070CE2
:1033C800598D4DB7B717004003A7470D498FEDB783
:1033D800931705010547C1836382E5048DC1094739
:1033E800638DE5040D476380E50637170040231E0B
:1033F800F70883560709D58F2318F70882803717EF
:1034080000400356470993C6F7FFF18E231AD708E1
:103418008326C70A558D2326A70AC1BF3717004040
:103428000356470993C6F7FFF18E231AD708832658
:10343800870A558D2324A70A4DBF371700408356A6
:103448004709DD8EE1B73717004083564709DD8EFF
:10345800E9BF797122D43714004026D24AD00359E3
:1034680024028354040206D64209C2044ECE52CC2A
:1034780056CA13590901C1802DE11379F9F793F45C
:10348800F49F4209C20413590901C18093078008B7
:10349800F3B7078093F787083EC40F10000093071F
:1034A80070052300F404930780FA2300F4040F1036
:1034B8000000231124032310940223000404A247CC
:1034C800F3A707800F100000B250225492540259FB
:1034D800F249624AD24A45618280B7F507008146BF
:1034E8003000B105194597D0FF1FE780E04FA2478C
:1034F80013972701E34A07FC1369090893E404407A
:1035080093098008F3B7098093F787083EC00F1026
:103518000000930A700523005405130A80FA23005B
:1035280044050F10000023112403231094022300E4
:1035380004048247F3A707800F100000294597D09D
:10354800FF1FE7800031F3B9098093F989084EC25B
:103558000F10000023005405230044050F1000003D
:103568008357040293E707202310F402230004047E
:103578009247B9B7411193F7250031ED81CB371741
:1035880000405C4B93F5D50FF99B5CCB9307800803
:10359800F3B7078093F787083EC00F100000B717EE
:1035A8000040130770052380E704130780FA23807F
:1035B800E7040F10000003C7E70093C5F5FFF98D76
:1035C8002387B700238007048247F3A707800F10DB
:1035D8000000410182807D163336C00089CB371741
:1035E80000405C4B93F5D50F93E717005CCB1307AE
:1035F8008008F337078093F787083EC20F10000052
:10360800B7170040130570052380A704930680FAB6
:103618002380D7040F10000003C8E700B3E50501B5
:1036280093E505042387B700238007049245F3A593
:1036380005800F100000F335078093F585082EC428
:103648000F1000002380A7042380D7040F10000068
:1036580083C5F70093F5C50FA387B7002380070438
:10366800A245F3A505800F10000073370780137774
:1036780087083AC60F1000002380A7042380D704C8
:103688000F10000003C7F700598EA387C7002380D7
:103698000704B2471DBFB71700408847420541815C
:1036A8009377050491EB9377F5013755E8011305F6
:1036B80005803345F50282809377050C13070004D3
:1036C8006397E7009377F50137459C1CCDB72165D3
:1036D800130505D0828037E700E01C435443A183DB
:1036E800E206D58F1CC1FD572320F7182322F718AF
:1036F8000F100000828013178500B7E700E023A0B1
:10370800E710618123A2A7108280B7F700E08847FD
:10371800CC478280814737370040A14663C4C70041
:10372800328582800345B740E38EA6FE3385F500D7
:103738000345050085072304A740CDB797F7FF1F6A
:103748009387C7309C4317170020130767523E958D
:10375800636EE50017370020130747EA6368A70080
:1037680017F7FF1F2324A72E3E858280FD57EDBF44
:10377800411122C406C62A84393F2947B307E50206
:10378800B2408D83B3D7870222449507B3D7E702A7
:1037980037370040C207C1832316F74041018280B2
:1037A800716541111305052006C6D937B7370040A2
:1037B800130770F82381E7400D47A381E7401307FB
:1037C8000004A380E74005472387E740B240410152
:1037D8008280938781889C43411106C622C491C385
:1037E80082979387C1889C4391C382979387818DE1
:1037F80080431745020013056578A285EF30024023
:1038080085671387370013054006634F8702938740
:1038180007C8014563DA8702FD77938747253E94F9
:10382800930740063304F402930780250545335473
:10383800F4021374F40F09C8930730061375F40FD4
:1038480063F4870013053006B240224441018280A8
:1038580003A84500411126C206C622C483471800A2
:1038680003480800A944A207B3E70701C2070D6887
:10387800C187130828906396070385473284EF8031
:103888001073AA8419ED938741889C4399CB03450B
:103898001400034704002205598D1335150005054A
:1038A8008297B240224426859244410182802D4568
:1038B8003DE7D841411122C426C206C683471700F6
:1038C80003470700B684A207D98F0D67930697A10F
:1038D80032846396D702F53D83C741806374F5004F
:1038E8002382A18085472390F40083C74180230069
:1038F800F4000145B24022449244410182801307FA
:1039080087902945E398E7FECC4589472390F40042
:103918000946228597D0FF1FE780204CD9BF8280B7
:1039280083474500858BADC7011122CC2A840355F6
:1039380025009385C1A106CEEF803062058929C58F
:1039480003552400014781460546ED45EF80F01AEE
:103958002AC61DC997F7FF1F938787B983D7A70280
:1039680001462C002314F10085472315F10083C775
:1039780041802300F50003552400EF90F03A09C573
:10398800ED452800EF80302FF240624405618280C7
:103998008280416541119385C1A17D1506C6EFA0BE
:1039A8003028B24097F6FF1F938686B94146954561
:1039B80017F5FF1F1305C5B341016FA0901B23A284
:1039C800A1888280411122C406C685470944631133
:1039D800F5028347060001442380F18803C741802C
:1039E8006378F700170500001305C5F3EFC0F0640E
:1039F8002285B24022444101828085476301F50255
:103A080009C909476302E5020D476306E50209454E
:103A1800828083C741802380F50001458280938797
:103A2800018883C70700C5BF97F7FF1F83D7E7AC97
:103A38002390F500DDB71387818003570700239291
:103A4800E50017F7FF1F1307A7AA8356A702035716
:103A5800A7032383F5002390D5002391E50075BFC4
:103A6800411106C6BD3383C74180637AF5002382BE
:103A7800A180170500001305E5EAEFC0105CB2400D
:103A880001454101828041677917630CE5024111C4
:103A980022C406C685472A84639AF50022852244F3
:103AA800B2409385C1A141016FA0901789476396E1
:103AB800F5008545EFC0F05275D1B240224441016E
:103AC80082808280CC41411106C6328503C615002A
:103AD80083C5050022064D8E42068D6541861388F2
:103AE80075A2630C060F6348C804138845A26306D1
:103AF800060B634AC800938535A26309B60623906E
:103B08000600294679A0138855A26308060B9385F9
:103B180065A2E316B6FEC1451D4663ECE5064546BB
:103B2800198E63F3C7003E862390C60097450200AE
:103B38009385C54689A8138895A26300060F634E2E
:103B4800060B1388A5A2630A060F938505A5E3183B
:103B5800B6FA99451D4663EEE502198E63F3C70070
:103B68003E862390C6009385018131A89D451D4658
:103B780063E1E5022146198E63F3C7003E86239070
:103B8800C60093850189BA9597D0FF1FE780E02486
:103B98000146B240328541018280AD451D46E3EAC7
:103BA800E5FE3146198E63F3C7003E862390C600B2
:103BB8009745020093854542F9B7B1451D46E3EAAA
:103BC800E5FC3546198E63F3C7003E862390C60090
:103BD80097450200938545417DB7C1451D46E3EAF7
:103BE800E5FA4546198E63F3C7003E862390C60062
:103BF800974502009385C53B79B7C1451D46E3EA61
:103C0800E5F84546198E63F3C7003E862390C60043
:103C1800974502009385453EBDB7C1451D46E3EA79
:103C2800E5F64546198E63F3C7003E862390C60025
:103C38009745020093850539B9B7B5451D46E3EAAE
:103C4800E5F43946198E63F3C7003E862390C60013
:103C580097450200938585333DB797F6FF1F9386F6
:103C6800E6A14146CD4517F5FF1F1305258E6FA028
:103C7800407082809387C18A9C4303C7018A83C6A8
:103C8800F18101E781473E85828003D607006316EC
:103C9800A60003C66700E308D6FE7D171377F70F63
:103CA800A107C5B7B2862E86AA8517450200130557
:103CB80065396F20B2740111930500030D4506CED6
:103CC800EF50205E930500051145EF50805D930588
:103CD800C0030545EF50E05C85471306F1008545B4
:103CE80013055030A307F100EFA08104F2400561ED
:103CF80082808547631AF5001166130686A98945EF
:103D080003C5118A6F30A01389476317F5008945E9
:103D180003C5118A6F30403D828085476398F5005E
:103D280019E2238DB1882388C18A82800947639963
:103D3800E50019E6238DF18803D581896F007007A6
:103D480082809387418A9C43011122CC06CE2E841F
:103D580081CB9C4791C78297F2406244056182807B
:103D68006C0013057040EF80E14B32468145228597
:103D7800EF80310DD5B701119397050126CA06CEFC
:103D880022CC4AC84EC652C4C187AE8463D707083E
:103D980003C5118AEF20F0282A8439C90347050092
:103DA8009307000D6313F704834725004547638B8A
:103DB800E7046547639BE7021745020013050525DD
:103DC800EF20D263130954009309B400174A020084
:103DD800130A0A258345090052850509EF20126256
:103DE800E39A29FF2945EF2072652285EF205017B5
:103DF8002165258DF2406244D2444249B249224AA3
:103E080005618280034665008345750017450200F9
:103E180013058521EF20925EC9BF93F7150085C36E
:103E280017F6FF1F1306068797F5FF1F9385C585AD
:103E380003C5118AEF90313C13C5140065BF93F791
:103E480025000145C5DB29391166130686A9894570
:103E580003C5118AEF20B07E13C5240061BF7971B4
:103E680026D24ECE06D622D44AD052CC9147AA8426
:103E7800AE896314F50483D7A5001306E1008545D0
:103E880013055030239CF18823070100238D0188F6
:103E9800EF90116A9387418A9C4391C7DC4781C799
:103EA800CE8526858297B250225423AE9188025936
:103EB8009254F249624A456182801387C189184346
:103EC800E31AF7FC854503D58189753E854503D5F9
:103ED8008189EF00C073C16703DA8189F917631B11
:103EE800FA0205449305E10013055041238D01882A
:103EF800A38F818023070100EF80C1328347E1004F
:103F0800B1E303C7018B9147E316F7F86D332388B4
:103F1800018A49B79387C18A03A9070003C4018AA4
:103F280069D00355290011C99305E100EF80506855
:103F380009C54C455285EFA0A04E7D141374F40FAB
:103F48002109F9BF9387818A9C4383C74700898BDE
:103F5800CDDB9305000A0D45EF50A0349305000A08
:103F68001145EF50003481450545EF508033130665
:103F7800E10085451305503023078100EF90515B20
:103F880049B7011117050000130525DF06CE22CC1D
:103F9800EF3020521384118A85471306F1008545B6
:103FA8002300A40013054041A307F100EF80D110BE
:103FB8007D55EF70D07C7D55EFA060437939D13ABB
:103FC800C12317050000130505D3D53A17050000CE
:103FD800130565CAE12B034504008545EF205046CB
:103FE800F24062440561828023A2B18A23A4A18A97
:103FF800828023A6B18A2380A18A82809387C1897F
:104008009C43797106D622D426D24AD04ECE52CCC1
:104018001147639BE70483C7A189414481CF9387F4
:10402800C18A8043B284B68983C7018A03C7F181F4
:1040380099EB55442285B250225492540259F249C0
:10404800624A4561828083464400639AA60083469B
:1040580054006396B600834664006380E606FD1745
:1040680093F7F70F2104E9B709474144E384E7FCD4
:104078002C001305504123040100EF80A11A834747
:1040880081008DCB930500020D45EF5080219305EB
:1040980000031145EF50E02095450545EF5060209D
:1040A800854730008545130550302304F100EF9013
:1040B800314849B709314144B5BF03552400930538
:1040C8006100EF80F04E35D54C4503D58189EF80EE
:1040D800C068058939DD139904011359090101479D
:1040E80081464A86ED4503D58189035A0400EF804D
:1040F800C0202AC64D441DDD2686CE8523144101E5
:104108002315210197D0FF1FE78020CD01462C0001
:1041180003D58189EF9040412A84E30D05F0ED45F0
:104128002800EF80403539B7C841011122CC06CEAE
:10413800328403461500034505002206498E19CB33
:104148000D681308B8A42D4563090607F2406244B8
:10415800056182800D651308D5A463000603130862
:1041680025A2630C060175781308E85C32984208AA
:1041780013580801854863EE080303D5A50036C621
:1041880032C4CD3CB24615C19387418A9C4322462E
:104198008345550003A30700A2876244F240034504
:1041A8004500368785460561028323900600014550
:1041B80071BF1308B5A46317060303D661821D45B2
:1041C800E376C7F8198E63D3C7003E86CC452390A3
:1041D800C60042064182BA95228597D0FF1FE78024
:1041E800C0BFF1B79307A5A46318F60091472390C1
:1041F800F6001146CC45CDB7930785906317F600B6
:1042080089472390F6000946F5B79307E5A4631A92
:10421800F600DC452390160183C707002300F4004D
:1042280079B713057590E314A6F8D9BF011122CC0C
:1042380006CE26CA4AC82317D1002D4429EBDC41F3
:104248002E89B28403C4170083C7070022045D8C3B
:104258008D679386D7A46306D400938627A3631F2C
:10426800D4020355A900393419E101440DA09387FC
:10427800418A9C43834555000345450003A8070030
:104288002286A6871307E100814602982A842285A0
:10429800F2406244D2444249056182809386C7A4B1
:1042A8006314D4028357E10005473544E391E7FEE0
:1042B8000345060013040008E3EBA7FC9387418A33
:1042C8009C43DC43829755B793862790631AD402A0
:1042D8008356E1008547EF80804D2A844DF9938706
:1042E800C18A8356A9009C4303C7018A3DDF03D6D0
:1042F80027006302D6047D171377F70FA107FDB7D0
:104308009387E7A4E313F4F68357E10005473544A0
:10431800E39FE7F60345060013040008E3E9A7F660
:10432800DC452380A7009387418A9C433335A0004E
:104338000905DC4341BF1387418A184303C5470079
:1043480083C5570083C714000328070003C7040068
:10435800A2078946D98FC207C18705476383E7004B
:104368008D460D66A6871307E1001306269002986E
:1043780039BF411122C441641305F4FF9385C1A3D9
:1043880006C626C24AC0EFA0A0091305F4FF93850C
:10439800C1A297E4FF1F9384A430EFA0600897E6BA
:1043A800FF1F9386E6494146E9452685EF90707CD4
:1043B800CC4C2A890945EFF04FE4138741838346A3
:1043C8000700938701830347170003C61700138468
:1043D800C1A483C50700A306E40083D7A40CA30ED9
:1043E800E40003D7A416A302C400A30AC40003D69A
:1043F800A4132310F400231CE40083D7A40D13870F
:10440800C18203D5A4102318C4000357070003D69C
:10441800A4142311F40085472303F4002306D400D1
:104428002307F4002319C400230ED4002302B40088
:104438002314A400230AB40023150400230B04004A
:10444800231D0400230F04002312E40203D7A41839
:10445800938541A72303F4022310E40223110402E5
:104468000D45EFF08FD9A2851D456136B240224433
:104478004A8592440249410182808D67138527A3AA
:104488006301A6049387D7A40145631EF6008947F4
:10449800639CF500854735456397F6008347070019
:1044A800238BF18A014582808D472945E39DF5FEDE
:1044B80085473545E399F6FE83470700238AF18A45
:1044C800D5B785473545E390F6FE83470700A389AE
:1044D800F18AC9BF8D67138527A36308A60293874E
:1044E800D7A46317F6028947639BF50083C7618BDE
:1044F8002300F70085472390F600014582808D4709
:104508006398F50083C7418BE5B783C7318BCDB777
:1045180023900600DDB70145828025E303A8450006
:10452800AE888347180003480800A207B3E70701CD
:104538000D68930EF8A4639AD70391473548639F93
:10454800F60203A5C8004111B285114606C697D0E8
:10455800FF1FE78080889387418C9C43054582979D
:10456800B240014842854101828093082890294839
:104578006396170185476F8080232D484285828086
:1045880041654111938541A87D1506C6EF90506994
:10459800B24097E6FF1F938666314146994517E575
:1045A800FF1F1305A52A41016F90B05C23A2A18CBF
:1045B80082800111938541A822CC06CE2A84EF80FF
:1045C800C019058929C1014781460546ED4522855F
:1045D800EF70B0522AC605C997E7FF1F93870727D0
:1045E80083D7A70401462C002314F100854723151F
:1045F800F100230005002285EF80107309C5ED4501
:104608002800EF705067F24062440561828041677C
:104618007917630CE502411122C406C685472A842E
:10462800639AF50022852244B240938541A841014E
:104638006F90105F89476396F5008545EFC0601A53
:1046480075D1B240224441018280828011456FE0D9
:10465800AFB3411193962500AA852D4506C697C08C
:10466800FF1FE7806038B240014541018280011197
:1046780022CC06CE3714004026CA4AC84EC652C4B9
:1046880083447405034AB4058349840503499405A2
:10469800EFE04F888347A40593F4F40F137AFA0FD9
:1046A80093E71700230DF40493F9F90F1379F90F21
:1046B800B717004003C7A705058B6DFF03D5C705CE
:1046C800A38D4705238C3705A38C2705A38B970457
:1046D800F2406244D2444249B249224A056182808A
:1046E80041119397050122C406C6C1872E8463DD54
:1046F8000700EF20001319C1EF2080062165218DE6
:10470800B24022444101828093F7150013C5150079
:10471800E5FB93F7250013C52500FDF393972501C5
:1047280063D00702EF304130153737F60200130621
:1047380006E0896503C5C18CEF2060700965C1B7C3
:10474800939715010145E3DD07FA174502001305A4
:10475800259AEF20E25E13060064916503C5C18CBB
:10476800EF20E06D116561BF2D71232A9110FD7452
:10477800E98C232C811023282111232631112A8426
:10478800AE893289930600100A86A6852D45232E08
:10479800111097C0FF1FE780202513154401518190
:1047A8000A0513962900CA850A9597C0FF1FE78056
:1047B800C062A68585660146254597C0FF1FE7802C
:1047C800A0220A86A68593060010294597C0FF1FD8
:1047D800E78080218320C1110324811183244111A2
:1047E800032901118329C11015618280B7F70700D9
:1047F80003C70701411106C622C426C24AC0A547FD
:10480800631AF7009537B2402244924402490145A1
:104818004101828013942500AA843289A286AA8540
:104828000146254597C0FF1FE780001CA2864A86DF
:10483800A685294597C0FF1FE780001BE9B71D71B2
:1048480049469745020093852586174502001305BA
:10485800A56E86CE97C0FF1FE780606501E9174502
:1048680002001305A585EF20A24D01A0B7F600E0D0
:10487800795798CAFD57DCCA0567B7E700E023A057
:10488800E7101306F00290C223A0E7180F100000EB
:1048980017D7FF1F1307C7B123A4E18C4157A38A79
:1048A800E740130600048145080897C0FF1FE7800A
:1048B800E05997E7FF1F9387A7433EC88967938707
:1048C8000780231AF1009D673ECCB707010593873F
:1048D80007103ECEED472310F10285472301F10270
:1048E80097070000938727D7BEC2970700009387D2
:1048F80027F0BEC48567938757D12312F10297F733
:10490800FFFF9387C7E03ED8B7F507009707000079
:10491800938727D63EDC814697070000938747D3C5
:104928003000E10519453EDE97C0FF1FE780C00B48
:1049380018088147994630003E96034606008507C9
:104948000507A30BC700E398D7FEC24791C70357D3
:10495800410185676373F70001A08307410263D7AC
:10496800070493078008F3B7078093F787083EC4C6
:104978000F100000B7170040130770052380E704E5
:10498800130780FA2380E7040F100000B847B70622
:10499800100013670718B8C79853558F98D323800A
:1049A8000704A247F3A707800F1000000808EF20AC
:1049B8001034AA8501C91735020013056571EF2067
:1049C800E22301A0F640256182804111170500000D
:1049D800130545D106C622C4EF20B02D1384C18C1F
:1049E8002300A4001928034504002244B2401306FA
:1049F8000032896541016F208044797106D613071A
:104A08008008F337078093F787083EC20F1000002D
:104A1800B7170040930570052380B704130680FA82
:104A28002380C7040F10000083C6F70293F6A60F71
:104A3800A387D702238007049246F3A606800F10A7
:104A4800000073370780137787083AC40F100000F7
:104A58002380B7042380C7040F10000003C7F702A0
:104A680013672700A387E70223800704A247F3A759
:104A780007800F1000000545EFD03FCFC13E8147AA
:104A880001478146054685451305407EEFD0DFD2B4
:104A980068005146814597C0FF1FE780203BB70754
:104AA800C0A83EC8B787E803938707D03ECA680006
:104AB80097C7FF1F938727E23EC6EF205057B25093
:104AC800456182804111AA854146138541A906C6E0
:104AD800EF206207B2404101828001478147C14609
:104AE8003306E500034606000507B29793F7F70F6C
:104AF800E318D7FE0347050101456316F7009387BE
:104B080017F03335F0008280011122CC2A84280066
:104B180006CE02C402C6EFE04FF13C00A28613089D
:104B28000401A54503C7070013564700130576037C
:104B38003D8B63E4C500130506032380A600130616
:104B4800770363E4E50013060703A380C60089061C
:104B58008507E39906FD23080400F24062440561D5
:104B68008280B717004003A5470A83A7470A318107
:104B7800134515001397270105896344070013653A
:104B88002500B717004083A7470A13971701634406
:104B980007001365450082809D4763F3A700014520
:104BA80091C913171500938741A9BA9783C70700BE
:104BB8002380F50009CA938741A906053E958347D6
:104BC80015002300F60082801D7186CEA2CCA6CAED
:104BD800CAC8CEC663080512814701444147B306D7
:104BE800F50083C60600850736941374F40FE3981E
:104BF800E7FEAA8541464800EF10F2741735020017
:104C08001305454F230A8100173902001309C94FBC
:104C1800EF10D27E0144C5445C00A29783C507000B
:104C28004A850504EF10927DE31894FE2945EF208C
:104C3800E200856601468145254597C0FF1FE7804C
:104C4800A0DA9377F50FE9C3BE851735020013057F
:104C5800254CEF10B27A173502001305255EEF20B8
:104C6800220E173502001305656DA93D17350200A0
:104C780013050560EF20C20C814701441736020076
:104C88001306C66B4147B306F60083C606008507C0
:104C980036941374F40FE398E7FE41469735020003
:104CA8009385C5696810EF10126A1735020013055D
:104CB800255E230E8102173902001309E944EF101B
:104CC800F2730144C5447C10A29783C507004A8546
:104CD8000504EF10B272E31894FE2945EF1012761E
:104CE800856601468145254597C0FF1FE780C0CFEF
:104CF8001375F50F6308050E173502001305855B5C
:104D0800EF2002040544F9A0C54650008145294515
:104D180097C0FF1FE78040CD1374F50F19C4A28513
:104D280017350200130505412DB717350200130585
:104D3800A542EF20E200C546300881452D4597C0C1
:104D4800FF1FE78060CA173502001305A542EF1060
:104D5800F26A8144973902009389093B45493C0826
:104D6800A69783C507004E858504EF103269E3983E
:104D780024FF2945EF10926C8145C54758002E97AE
:104D88000346070038082E97834607006309D600B4
:104D9800173502001305853FEF1052666DBD850576
:104DA800E39EF5FC2808153B01E9173502001305B9
:104DB800E541EF10F27845B5173502001305C543F4
:104DC800EF1012782808FD39173502001305C5447D
:104DD800EF1012772285F6406644D6444649B64914
:104DE80025618280C54670108145294597C0FF1FFF
:104DF800E78080BF1375F50F11C51735020013053D
:104E0800654EFDBD173502001305C550D5BD797136
:104E1800C546700081452D4506D622D426D24AD0F3
:104E280097C0FF1FE78040BC1735020013050552E5
:104E3800EF10D25C0144173902001309E92CC5446C
:104E48007C00A29783C507004A850504EF10125B12
:104E5800E31894FE2945EF10725E6800BD3919CD3C
:104E68001735020013054550EF10926D6800993907
:104E7800B25022549254025945618280173502007B
:104E880013050551EF10D26B173502001305054BBA
:104E98001539138541A90D3BE1BF82803D897D15F8
:104EA800954763EDA714173702001307A7500A05A3
:104EB8003A951C41011106CEBA9782872C0013053A
:104EC8004030EF8031532C000545EF60C052173554
:104ED800020013052573EF10B26611A803C7250059
:104EE8008D47173502001305E572E306F7FEF24019
:104EF8000561828003C725009547E31AF7FE83D72B
:104F0800A5000D6613060620914503C5A1842394C8
:104F1800F184EF10D072173502001305A570EF1059
:104F28003262371700402383018E8327870C93E76B
:104F380007012324F70C23A6018E23A0018E45BF69
:104F480003C725008D47E314F7FA17350200130548
:104F5800256E51B783C72500114717350200130581
:104F6800A56E6381E70819476397E70683C565005F
:104F7800173502001305056FEF1052488547238344
:104F8800F18E371700408327C70C1306803EC145B2
:104F980093E707012326F70C03C5A184EF10306AB5
:104FA800F9571306803E9305000403C5A184239492
:104FB800F18423A6018E23A0018E2385018EEF1094
:104FC8001068854730008545130550302304F100EB
:104FD800EF80115629BF1547E395E7FE1735020004
:104FE8001305056AEF10D255E9BF83C525001735AB
:104FF80002001305656AEF107240D5BD8280411129
:1050080006C6EFD06FF483D7818EAA97C207C187EF
:10501800AA8563DD0706239A018C85679386870630
:1050280003D6418DB306D602FD171307C00DB3C6CC
:10503800F60293077013938666BEB387F60233C7EA
:10504800E70223ACE18C37C70B001307F7FC634872
:10505800F704371700408327870C93E707082324B2
:10506800F70C9387818D9C439308803E33E71603A2
:10507800B2401735020013056535410133E81703BF
:10508800B3C61603B3C717036F105237056763D546
:10509800E700239AF18C51B78567FD17DDBF3717F5
:1050A80000408327C70C93E707082326F70C55BF52
:1050B800011106CE02C402C601CD2305A1003400A9
:1050C800214685450145EFE07FF3F2400561828086
:1050D800340021468545C5BF411106C622C43A8819
:1050E8003E8795EA32830D661306D6A42A8EAE88CB
:1050F800834608006319C30089476396F50085470E
:105108003544639EF6022244B2401A86C6857285EB
:1051180041016FF08FB685476398F6002244B2408C
:10512800C28641016FF00FBB894701446399F600BD
:105138001306401F894503C5A184EF1050502285EE
:10514800B24022444101828079719397050122D4AB
:1051580006D626D24AD04ECE52CC56CA5AC8C18795
:105168002E8463D6070203C5A184EF10806B19C192
:10517800EF10005FA164A18CB25022542685025919
:105188009254F249624AD24A424B4561828093F76F
:10519800150093C41500EDF393F7450099CF83C725
:1051A800A1841307401F81462146A14503D5818468
:1051B800EF80C17F93444400C1B793F785009DC336
:1051C800014789460946814503D58184EF803168C6
:1051D800AA85173502001305A531EF103222934432
:1051E800840059BF93F70501A9C383C7618E85C79A
:1051F800B717004003A7470C418B0DC303A7C70C83
:105208001367070123A6E70C1306803EC14503C5B3
:10521800A184EF10D04293440401B9BF03A7870CBF
:105228001367070123A4E70CC5B793F70502638A40
:10523800070CB717004083A9470A83A4470AA16748
:1052480093F90902FD8CEFF0DF9183C7B18413BA9B
:10525800190093BA14002A89638BA700AA85173509
:1052680002001305652AEF107219A385218513061C
:10527800F1009305E1004A85EFF01F92639509025A
:1052880083C7518E99EF0345E1001D350346E100C0
:10529800CA85173502001305A528EF10321623A07A
:1052A800018E99C01DA885E483C7418E99EF0345F7
:1052B800F100FD3B0346F100CA85173502001305CE
:1052C800E527EF10B21323A0018E638D090083C771
:1052D800518E99C30145E93B91C483C7418E99C357
:1052E8000145F933130620039305000203C5A18481
:1052F800A382418F2382518F93440402EF103034EC
:10530800A5BD93F705046384071C9387C18E9C434E
:1053180093C40504850723A6F18E1387018E1843CD
:10532800050723A0E18E83C6C18D91CA1306803E6E
:105338009305000403C5A184EF10703035BDC16624
:1053480003D68184F9166317D61A1307B012E37FC0
:10535800F7FC83C7A18EF9FB054A17350200130530
:10536800E5222385418FEF10B21DC14503C5A184F5
:105378002383018EEF1050579305000203C5A184C3
:10538800EF1090569305000403C5A184EF10D05583
:105398009305000803C5A184EF101055A169138572
:1053A80009028545EFD01FEE13850902B7EA00E030
:1053B800370B020089456179EFE08F81371400408F
:1053C80023A06A1113090902231E24098327C40C88
:1053D8000146C14593E707012326F40C8327C40C33
:1053E800054593E707082326F40CEFE0AF988355AB
:1053F8000409173502001305E51AEF10320083453A
:10540800E400173502001305651BEF10227F835552
:105418000402173502001305E51BEF10227E4945EB
:1054280097B0FF1FE780C0DE173502001305C51BC4
:10543800EF101211231E240923A06A190F1000006F
:105448008D454145EFD07FEE8D4513050008EFD01F
:10545800DFED854513850902EFD0DFE285451D653F
:10546800EFD05FE22383418F8327C40C1306803E6D
:10547800C14593E707012326F40C03C5A184EF1067
:10548800101C130620039305000203C5A184EF1026
:10549800101B3D66130606A69305000803C5A184E4
:1054A800EF10F0191306803E9305000403C5A1848C
:1054B80023A6018E23A0018E2385018EEF103018BC
:1054C8002385018E23A6018E23A0018E85B593F72F
:1054D80005088144E38207CAEFF07FB23D661306F0
:1054E80006A69305000803C5A184EF105015934440
:1054F800040859B193077070E3FAE7E283C7A18EF5
:10550800E39607E293058070173502001305C5047A
:10551800EF10C26E91B5357117050000130505C36C
:1055280006CF22CD26CB4AC94EC752C556C35AC14B
:10553800DEDEE2DCE6DAEED6EAD8EF1090772385F5
:10554800A184281802DC02DE82C082C2230401047E
:10555800EFF08FDB83465104034641049645034729
:1055680061048347710417D5FF1F2321B53897D5E8
:10557800FF1F2388C53417D6FF1FA304D63405445C
:10558800301885451305503097D6FF1F238CE63217
:10559800230C810217D7FF1FA306F732EF8041794A
:1055A800138681839D4513056030EF80617817D697
:1055B800FF1F1306E632FD4513057030EF80417773
:1055C80017D6FF1F1306462FD5450145EF60D009B2
:1055D8008D473018914513057040A307F100A306C5
:1055E80081002308810002DC23070100EF70C12C31
:1055F8001306D100854513050040EF70E12B130613
:10560800E100854513051040EF70012B1306F100EA
:10561800854513052040EF70212A1008854513059C
:105628005040EF706129B707090099073EDCB707BA
:105638002C01D1073018A14511453EDEEF60D0029C
:105648009947301885450545230CF102EFE08FB7DF
:10565800EFE03FD297D5FF1F9385852713850184F7
:10566800EFE09F98854503C5A18437190040EF10E6
:10567800205D2383818E8327C90C1306803EC14594
:1056880093E707012326F90C03C5A184EF10207BBB
:10569800130620039305000203C5A184EF10207AA6
:1056A8001306803E9305000403C5A18423A6018E3A
:1056B800EF10E07817350200130545D5EF10426862
:1056C8008145130500048344890503449905EFD0F7
:1056D800DFC585450145EFD02F8083479905056AC9
:1056E800056B93F7F70C93E70701A30CF904B76A66
:1056F8000300A547230CF90493F4F40F1374F40F73
:105708009309010113098103814D938B818E7D1BC0
:10571800130C8A06930CFAFF938A0AB6EFD0CF824D
:1057280083D70B002A86AA97BE86C207C18763C3A0
:105738004701DA869397060163D307008146C206BC
:10574800C186B3868603930770131308C00D9305AB
:10575800803E138D1D0017350200130565CEB3C6B4
:105768009603938666BEB387F60223A0D90033C892
:10577800070333E7B60223200901B3C75703336889
:10578800B802B3C6B602EA85EF104247A547638858
:10579800FD001305400697B0FF1FE780600CA9477E
:1057A80091091109EA8DE31BFDF62547814735A0CC
:1057B800139627009410850736968810939627002D
:1057C800AA96832506FB03A506FB6356B500232886
:1057D800A6FA23A8B6FA93F7F70FE3CBE7FC7D17F1
:1057E80071F72547814735A0139627009410850740
:1057F8003696881093962700AA96832586FD03A5DA
:1058080086FD6356B500232CA6FC23ACB6FC93F7A3
:10581800F70FE3CBE7FC7D1771F7A14781460145F8
:105828001307000210083E961042329530183E9633
:1058380010429107B296E397E7FE85671947938769
:1058480057773348E50233C7E60263D5D700854763
:10585800238EF18C85651306803E9385057737196D
:10586800004083C7C18D3367C702B3C6B60233662B
:10587800C802B345B502173502001305A5BFEF10DE
:10588800E237230C9904A30C8904834799058545BD
:105898001305000493F7F70C93E70701A30CF90429
:1058A800EFD0BFA881454145EFD0DF9D8545014533
:1058B800EFC09FE28347990593E71700A30CF9040B
:1058C8008347990593F7F70C93E70701A30CF904AD
:1058D800230C0904EFC03FD7AA852394A18E17355E
:1058E80002001305A5BDEF106231EFF04FF13D66E0
:1058F800130606A69305000803C5A184EF102054DB
:10590800FA406A44DA444A49BA492A4A9A4A0A4B46
:10591800F65B665CD65C465DB65D0D6182805D7146
:10592800054586C6A2C4A6C2CAC04EDE52DC56DAF7
:105938005AD8EFD01FB21305800497B0FF1FE78035
:10594800C0C7371400408327840A8D4513050020FB
:1059580093E707202324F40AEFD0DF92EFD05FE427
:1059680017360200130646D497350200938585D46E
:10597800173502001305C5D4EF104228EFF02FC9E0
:10598800680802CE02D002D202D423060102EFF048
:10599800AF976C0817350200130585D5EF1002265E
:1059A8001305800497B0FF1FE78020C1EF00305235
:1059B80005651305853897B0FF1FE78060EA09265B
:1059C800630B050A17350200130505D4EF1042379B
:1059D8002165854513050502EFD0DF8A85451D65DC
:1059E800EFD05F8A9384018FB5221309301FB789DE
:1059F8000040173A0200130AAAD2973A0200938A83
:105A08002AD5054BAD229C408507636BF90223A874
:105A1800F18E7D2421C9238A618F5D2439E5EF0049
:105A2800105021E55685EF10A2311305400697B0B6
:105A3800FF1FE780E0E297B0FF1FE78000D435A0A2
:105A480023A8018E03C43900A52C2AC6EF00304DC7
:105A580032461374F40FAA869375F4075285EF1033
:105A6800E21945BF83C7418FCDFB294597B0FF1F7A
:105A7800E78000DF41BF17350200130565D0EF103E
:105A8800222C378700408347070093F7F70D230040
:105A9800F7008357A401C207C18393F7F7F3C2073E
:105AA800C183231DF4008347170093F7E70FA30072
:105AB800F700B7E700E03707400023A0E7180F100A
:105AC8000000EFE0DFD7EFE05FF0EF808158EFE014
